:020000040800F2
:10000000503F002045010008C91C00087F1A000865
:10001000291C0008C90F00084D2F0008000000002F
:10002000000000000000000000000000DB230008CA
:10003000AD100008000000009921000845250008C7
:100040005F0100085F0100085F0100085F01000810
:100050005F0100085F0100085F0100085F01000800
:100060005F0100085F0100085F0100085F010008F0
:100070005F0100085F0100085F0100085F010008E0
:100080005F0100085F0100085F0100085F010008D0
:100090005F0100085F0100085F0100085F010008C0
:1000A0005F0100085F0100085F0100085F010008B0
:1000B0005F0100085F010008912700085F01000848
:1000C0005F0100085F0100085F0100085F01000890
:1000D0005F0100081129000899290008312A000849
:1000E0005F0100085F0100085F0100085F01000870
:1000F0005F0100085F0100085F0100085F01000860
:100100005F0100085F0100085F0100085F0100084F
:100110005F0100085F0100085F0100085F0100083F
:100120005F0100085F0100085F0100085F0100082F
:10013000DFF80CD000F0D8FE004800475D3F000813
:10014000503F00200648804706480047FEE7FEE78C
:10015000FEE7FEE7FEE7FEE7FEE7FEE7FEE7FEE777
:100160004925000831010008A0F14101192900D8F2
:100170002030704740EA01039B0703D009E008C91B
:10018000121F08C0042AFAD203E011F8013B00F85C
:10019000013B521EF9D27047D2B201E000F8012BA8
:1001A000491EFBD270470022F6E710B513460A46F7
:1001B00004461946FFF7F0FF204610BD421E12F814
:1001C000013F002BFBD111F8013B02F8013B002B52
:1001D000F9D1704730B505462A460B4612F8010B97
:1001E00013F8014B08B1A042F8D01CB1002802D08E
:1001F0006D1CF1E7284630BDCAB2401E10F8011F41
:100200008A4202D00029F9D100207047421C10F820
:10021000011B0029FBD1801A704710B5002200E0B5
:10022000521C835C8C5CA34201D1002BF8D1D8B264
:10023000E1B2401A10BD30B505460020034600E08B
:100240005B1C934205D2EC5CC85C201A01D1002CE7
:10025000F6D130BD2DE9FF4F087883B09946FF28CD
:1002600005D0491C2D2804D00024002008E00020DF
:100270000BE00124F9E700EB800003EB4000491C90
:100280000B78FF2BF7D104B140420023029314787E
:1002900019461D462D2C01D02B2C04D1521C2D2C7F
:1002A00013D000240294AA461478FF2C0FD00A25FC
:1002B000A3FB057801FB05814FF0000C03FB0C113B
:1002C000521CE3194AEB0101EEE70124EAE78144FD
:1002D00053EA010002D019F5C87F06DA039800211D
:1002E000C0E9001107B0BDE8F08F0025AE4E2F46E3
:1002F000DFF8B882184600F0D2FDCDE90001B9F16F
:10030000000002DAC9F1000400E004460023A74A15
:100310001AEB030B42EB045A12E0E00707D02A461F
:1003200033463846414600F0B4FA074688462A4626
:1003300033461046194600F0ACFA05460E466410E6
:10034000002CEAD1DDE90001B9F1000F5A4653460D
:1003500006DA00F035FD3A46434600F031FD05E08F
:1003600000F097FA3A46434600F093FA029A0AB12F
:1003700081F00041039AC2E90001B3E72DE9FF4F84
:100380001F468DB0D7E901464FF0FF382E20454675
:100390004FF000090B90B9696D1C0E988847396AB7
:1003A000824688470028F6D1BAF1FF3F0AD024F4EC
:1003B000D064002E11DDBAF12B0F08D0BAF12D0F49
:1003C0000BD102E0404611B08DE744F48064B96976
:1003D0006D1C0E9888478246761E6946600501D5D9
:1003E0002D2000E02B208DF8000001F1010B0DF114
:1003F000200809E0B9696D1C0E98884782460F985D
:1004000044F40074761E0560002E02DDBAF1300F50
:10041000F0D00B998A453ED144F0800406E00F9954
:10042000681CA9F1010944F400740860B9696D1CE5
:10043000761E0E98884782463028F0D02BE00B9924
:100440008A4505D1200603D444F08004761E18E0C6
:10045000504603F001F808B30DF11301761E44F481
:1004600000748B4508D2AAF130000BF8010B20066E
:1004700007D5A9F1010003E0200602D409F101002B
:100480008146A00502D50F99681C0860B9696D1CEA
:100490000E9888478246002ED1DC53E0002E51DDB5
:1004A000BAF1650F02D0BAF1450F4BD1A00549D57D
:1004B000B9696D1C24F44074761E0E9888478246F4
:1004C000002E0CDD2B2804D0BAF12D0F07D144F4F7
:1004D0008074B9696D1C0E9888478246761EE005C7
:1004E00001D52D2100E02B2108F8011BCDF82C802F
:1004F00021E00DF12901761E44F4007488450CD2E8
:10050000AAF1300010F0FF0088F8000002D10B992A
:10051000884509D908F1010806E0E00501D524481D
:1005200001E042F20F708146B9696D1C0E98884750
:1005300082460F980560002E04DD504602F08CFFC5
:100540000028D6D1F9690E988847FF208BF8000063
:1005500088F800000020069007904B466A4608A9DC
:1005600006A8FFF777FEA00502D46FF001002AE786
:1005700014F0240F0AD0E00714D1DDE90612386820
:10058000031D3B600068C0E900120BE0DDE90601D5
:1005900000F06CFA0146E00704D13868021D3A60A9
:1005A0000068016028460EE7000014400000F03F9C
:1005B000F1D8FFFFF0B480EA0102D40F4200B2EBA1
:1005C000410F02D20246084611464A0042D0C30DEE
:1005D000DDB2C1F3C752AD1A202D35DAC1F31601D1
:1005E00041F4000204B15242C5F1200602FA06F1BC
:1005F0002A411044B3EBD05F23D0C4B1012DA0EB4E
:10060000C35009DCF0BC4FF0004202EAC352DBB237
:1006100000F5000000F049BB400000F1807000EBE5
:10062000C350A0F1807040EAD170490009E0490848
:1006300041EAC071A0EBC35000F50000400800EB98
:10064000C350F0BC00F028BB6142012202EB410123
:10065000001BF6E7F0BC704781F00041AAE780F08C
:100660000040A7E780EA010210B502F00043400015
:1006700022D04A001FD0010E01EB1261C0F35600D8
:10068000C2F3560240F4000042F40002A0FB022034
:1006900000047F39140400D0401C50EA124001D4F9
:1006A0004000491EC2B20C0604EBD010401C4008AA
:1006B000802A02D003E0002010BD20F001000029B4
:1006C00000DA0020184310BD30B480EA010202F0C5
:1006D000004530F0004221F0004013D090B1C30D2E
:1006E000D40DC2F31601C0F31600E41A41F4000160
:1006F00040F400027D34914201D3641C00E04900C3
:10070000002C02DA30BC002070474FF400000023B8
:10071000914201D3891A034340084FEA4101F7D1BE
:1007200051B1914202D14FF0004105E002D24FF0A9
:10073000010101E06FF0010103EBC450284430BC1B
:1007400000F0AABA2DE9FE4F804681EA0300C00FEF
:100750000C46009021F0004123F00045B8EB020068
:10076000A94105D24046214690461C460B4602460A
:1007700023F00040104347D0270DC7F30A00C3F30E
:100780000A510290401A019040286BDAC3F313001B
:1007900040F4801B0098924620B10023D2EB030A5C
:1007A00063EB0B0B01985946C0F14002504600F034
:1007B000D4F906460D4650465946019A00F0ECF928
:1007C00010EB08006141002487EA115284EAE773C4
:1007D0001A4340D0009A62B3019A012A4FEA0752A5
:1007E00015DC001B61EB02014FF0004202EA0752E8
:1007F000CDE90042001C41F5801132462B4600F045
:1008000091FA03B0BDE8F08F40462146F9E7001B9E
:1008100061EB0201001C41F5801300185B412018B8
:10082000A2F5001747EB030140EAD570B6196D41F8
:1008300011E06D084FEA360645EAC0754FEA0752E7
:10084000001B61EB0201001C41F5801149084FEAD1
:1008500030000019514132462B4603B0BDE8F04F3D
:1008600000F051BA0098012240000023D0EB0202B0
:1008700063EBE073009821464FEAE074B8EB0000A8
:1008800061EB0401E9E783F000435BE781F000419D
:1008900058E72DE9FE4F81EA030404F0004421F0FB
:1008A000004100944FF0000B23F0004350EA010494
:1008B0005ED052EA03045BD0C3F30A54C1F30A5575
:1008C0002C44A4F2F3340194A0FB0254C1F31301AD
:1008D00041F48011C3F3130343F4801301FB02447A
:1008E00000FB034E840A970A44EA815447EA83577F
:1008F000A4FB076802958D0A05FB07854FEA932C38
:1009000004FB0C542705029D4FEA065847EA1637A8
:10091000B5EB08056EEB070C870E920E47EA8117C0
:1009200042EA8312A7FB0201B6EB0B0164EB000461
:100930002B0D43EA0C335E1844EB1C50DA4651464B
:10094000E7FB0201C5F313044FEA0B3343EA1453E8
:100950004FEA0432019C43EA0603A4F10C0402941A
:10096000009CCDE900B400F0DDF903B0BDE8F08FE4
:1009700000200146F9E796230022114600F095B9C0
:1009800020F00040C10DC0F3160040F400007F29A4
:1009900001DA00207047962903DCC1F19601C840B6
:1009A000704796398840704770B5C1F30A5201F01C
:1009B00000450024C1F3130140F2FF3341F48011DC
:1009C0009A4201DA002070BD40F233439A42A2F20B
:1009D000334203DC524200F0CFF800E090402C4359
:1009E000F1D0404270BD00F0004230F000400AD02B
:1009F000C10D01F56071C0F3160042EA0151C20851
:100A000040071143704700200146704730B5041E6F
:100A100071F1000404DB4FF00044404264EB01013B
:100A2000141E73F1000405DB1C464FF000435242D4
:100A300063EB04038B4208BF824230BD30B5041E15
:100A400071F1000404DB4FF00044404264EB01010B
:100A5000141E73F1000405DB1C464FF000435242A4
:100A600063EB0403994208BF904230BD01F000439C
:100A700030B421F0004150EA010206D00A0DA2F57F
:100A80006072C1F31301002A02DC30BC0020704701
:100A9000440F44EAC104C100E01830BC00EBC2506E
:100AA00000F0FAB8002801DBC0F10040002901DBAA
:100AB000C1F1004181427047002801DBC0F10040D4
:100AC000002901DBC1F100418842704730B50B4677
:100AD000014600202022012409E021FA02F59D426E
:100AE00005D303FA02F5491B04FA02F52844151E42
:100AF000A2F10102F1DC30BD2DE9F05F05460020D6
:100B000092469B4688460646814640241BE028467E
:100B100041464746224600F02FF853465A46C01A2F
:100B2000914110D311461846224600F016F82D1AAE
:100B300067EB01084F4622460120002100F00DF826
:100B400017EB00094E41201EA4F10104DFDC4846EA
:100B500031462A464346BDE8F09F202A04DB203A6E
:100B600000FA02F1002070479140C2F1200320FA00
:100B700003F3194390407047202A04DB203A21FAFE
:100B800002F00021704721FA02F3D040C2F12002A6
:100B90009140084319467047202A06DBCB17203ABC
:100BA00041FA02F043EAE07306E041FA02F3D04072
:100BB000C2F120029140084319467047426842B191
:100BC000016811F8013B23B1521EC0E9001218461A
:100BD00070470121C160881E704742685AB1C368DE
:100BE000016843B983688B4205D0491E521CC0E995
:100BF0000012002070474FF0FF3070470FB4002301
:100C000000B589B00CA900910B996FF00042CB6040
:100C10001E4B06931E4B07930423CDE901321D4A58
:100C2000089202466B460020FFF7A8FB09B05DF86A
:100C300014FB70B586B006464FF0FF300091CDE949
:100C40000101002015460C4604903246694604A86E
:100C5000FFF7D4FF02460498211825B108B10846D1
:100C600000E020462860049800280DD0002A02DD0C
:100C70000098884208D0081B0094CDE90104324650
:100C8000694604A8FFF7BAFF06B070BDBD0B0008A7
:100C9000DB0B00080D0F00080029A8BF7047401C9F
:100CA000490008BF20F00100704710B4B0FA80FC82
:100CB00000FA0CF050EA010404BF10BC704749B1BF
:100CC000CCF1200421FA04F411FA0CF118BF01212F
:100CD00021430843A3EB0C01CB1D4FEA00614FEA0F
:100CE000102042BF002010BC704700EBC3501044DE
:100CF0000029A4BF10BC7047401C490008BF20F069
:100D0000010010BC704710B5141E73F1000408DA1E
:100D1000401C41F1000192185B411A4301D120F0BF
:100D2000010010BD2DE9F04D92469B4611B1B1FA7C
:100D300081F202E0B0FA80F220329046FFF70DFF18
:100D400004460F4640EA0A0041EA0B0153465A4660
:100D5000084313D0114653EA010019D0C8F14002EC
:100D60005046FFF709FF05460E4650465946424693
:100D7000FFF7F3FE084305D0012004E02046394682
:100D8000BDE8F08D0020054346EAE0762C4337436A
:100D90000A986305E40AA0EB08000022FD0A44EA71
:100DA00047540A3002D500200146E9E70105101931
:100DB0006941DDE9084500196941BDE8F04DA2E748
:100DC0002DE9F04D81EA030404F0004B21F00045C9
:100DD00014464FF0000A23F0004150EA050220D0EB
:100DE00054EA01021DD0C5F30A570246C5F31303A6
:100DF000C1F31300C1F30A5640F4801543F4801385
:100E0000A7EB0608101BD64608F2FD3873EB050069
:100E100002D308F1010801E092185B41B8F1000F1C
:100E200003DA00200146BDE8F08D00204FF4801168
:100E3000064684460EE0171B73EB050705D3121B0D
:100E400063EB050306434CEA010C49084FEA300006
:100E500092185B4150EA0107EDD152EA030012D02B
:100E600082EA040083EA0501084305D0101BAB4168
:100E700006D20122002306E000224FF0004302E0E8
:100E80006FF0010253101AEB06004CEB085110EB07
:100E90000A0041EB0B01BDE8F04DFFF734BF0EB582
:100EA00040F2334202920022CDE900221346FFF7BE
:100EB00039FF03B000BDC1F30A52C1F3130140F280
:100EC000FF3341F480119A4202DA00200146704754
:100ED00040F233439A42A2F2334202DC5242FFF71D
:100EE0004BBEFFF73ABE0000064C074D06E0E06837
:100EF00040F0010394E8070098471034AC42F6D361
:100F0000FFF71AF9E44D0008044E0008C0B24FF490
:100F1000F05100F001B800007F2801D9002208E05C
:100F2000064A02EB5002C007127800D1120902F003
:100F30000F0201209040084070470000D44C000888
:100F400070B58C1810F8015B15F0070301D110F88B
:100F5000013B2A1106D110F8012B03E010F8016BB8
:100F600001F8016B5B1EF9D12B0705D40023521E3B
:100F70000DD401F8013BFAE710F8013BCB1A921CA3
:100F800003E013F8015B01F8015B521EF9D5A142A1
:100F9000D8D3002070BD000010B50A48007880B199
:100FA00008480078012802D0022805D103E001207A
:100FB00000F03CFE00E000BF00BF002001490870C7
:100FC000C87110BD242F002000BFFEE710B5C82156
:100FD0000348FFF7E8F800200249088010BD000030
:100FE000911C00206A0B002010B5012000F088FD44
:100FF00004463CB12448007820B9244804700120FC
:101000002149087064B120480078012808DB1E4897
:1010100000781E2804DC1C480078401C1A4908701F
:10102000ACB919480078002811DD174800781E284F
:101030000DDA16480078012803D115A002F0B4F8A3
:1010400000E000BF00BF00200F4908701BE0D4B9CA
:101050000D4800781E2816DB0C48007801280DD1B9
:101060000EA002F0A1F81048007B18B901200E492B
:10107000087302E000200C49087300E000BF00BFC5
:1010800000200149087010BDC20B0020C30B0020D6
:101090004B6579315F53686F72740A004B65793123
:1010A0005F4C6F6E670A00003C2F00207047000005
:1010B00010B54FF480710348FFF775F8002002491E
:1010C000088010BD21260020A40B002070B5054625
:1010D000002400BF00F022F878B90DA10E48FFF7F8
:1010E00079F804464CB17B212046FFF785F8044689
:1010F0000CB1204670BD0020FCE7052002F098FEF0
:10110000281EA5F101018DB2E4D100BFF2E7000075
:101110004D54524543560000212600200A480088BD
:1011200008B90120704708480088084909888842A2
:1011300003D1002004490880F4E7034800880349EC
:1011400008800120EEE70000A40B0020A60B002081
:1011500070B5C0B004464FF480716846FFF723F8BD
:1011600035A0008820804FF480716846FFF71BF897
:101170003248C27A32A1684602F026F86946204613
:10118000FFF71CF84FF480716846FFF70CF82B4806
:10119000027B31A1684602F017F869462046FFF746
:1011A0000DF84FF480716846FEF7FDFF2348C279C1
:1011B0002DA1684602F008F869462046FEF7FEFFBA
:1011C0004FF480716846FEF7EEFF2D480068FFF788
:1011D0000AFC05462A460B462AA1684601F0F4FFA0
:1011E00069462046FEF7EAFF4FF480716846FEF735
:1011F000DAFF29480068FFF7F6FB05462A460B464A
:1012000026A1684601F0E0FF69462046FEF7D6FFBA
:101210004FF480716846FEF7C6FF25A1684601F0CD
:10122000D3FF69462046FEF7C9FF2046FEF7EEFFD2
:10123000C0B240B070BD00007B0000003C2F002019
:10124000224D6173736761655F77616E6E696E676A
:10125000223A222564222C00225761726E696E6741
:10126000223A222564222C00224C6F636174696F3C
:101270006E5F7374617465223A222564222C00002B
:10128000B80B0020226C6F6E676974756465223A32
:1012900022252E3666222C00BC0B0020226C6174A5
:1012A0006974756465223A22252E36662200000094
:1012B0007D00000000B5A1B0FA2002F0B9FDFFF7F3
:1012C000F7FE4FA001F070FF03E04FF4967002F0BC
:1012D000AFFD4FF4FA7251A151A000F02BF9002894
:1012E000F3D151480068C0435049C1F8B40150A03F
:1012F00001F05AFF802101A8FEF755FF52A101A875
:1013000001F062FF03E04FF4967002F091FD4FF49C
:10131000FA7242A101A800F00DF90028F3D1424869
:101320000068C0434149C1F8B4014EA001F03CFF40
:1013300052A001F039FF802101A8FEF734FF40F2EE
:101340005B7352A255A101A801F03EFF03E04FF4E8
:10135000967002F06DFD4FF4FA7230A101A800F012
:10136000E9F80028F3D153A001F01EFF2E480068D1
:10137000C0432E49C1F8B401802101A8FEF713FF34
:101380004FA04FA34EA251A1009001A801F01CFF55
:1013900003E04FF4967002F04BFD4FF4FA721FA178
:1013A00001A800F0C7F80028F3D11F480068C04327
:1013B0001E49C1F8B4014DA001F0F6FE802101A83C
:1013C000FEF7F1FE4CA252A101A801F0FDFE03E0E0
:1013D0004FF4967002F02CFD4FF4FA720FA101A8A1
:1013E00000F0A8F80028F3D10F480068C0430F4967
:1013F000C1F8B4014CA001F0D7FE21B000BD00003F
:10140000B2E2CAD4CDA8D0C5CAC7B7F1B3C9B9A68C
:101410002E2E2E202E2E2E0D0A0000004F4B0000E7
:1014200041540D0A00000000B40122420000224293
:10143000C9E8D6C3CAFDBEDDC0E0D0CD2E2E202E19
:101440002E2E0D0A0000000041542B4D54434647F8
:101450003D22636C6F7564222C302C302C310D0AC8
:1014600000000000C9E8D6C3C1B4BDD3B2CECAFDE6
:101470002E2E2E202E2E2E0D0A000000C1ACBDD324
:10148000B7FECEF1C6F70D0A00000000382E31334A
:10149000332E3139372E31300000000041542B4DAE
:1014A000544F50454E3D302C222573222C25640D7F
:1014B0000A000000C1ACBDD3C9E8B1B80D0A0000F4
:1014C00032322D312D6465766963650041542B4DB0
:1014D00054434F4E4E3D302C222573222C2225732F
:1014E000222C222573220D0A00000000B6A8D2E5A6
:1014F000D6F7CCE20D0A00002F62726F616463615F
:1015000073742F3232312F74657374310000000010
:1015100041542B4D545355423D302C312C222573D0
:10152000222C300D0A00000047413130204F4B0D76
:101530000A000000F0B5C1B004460E46154622462A
:1015400011A101A801F040FE01A8FEF75FFE87B2DD
:10155000394601A801F0FAFD0FE0FFF7DFFD48B9B9
:1015600031460A48FEF736FE20B1FFF7A1FD002004
:1015700041B0F0BD0A2002F05BFC281EA5F101017C
:101580008DB2EAD10120F3E7257300002126002067
:1015900070B504460D46FFF78BFD2946204601F045
:1015A000D5FD70BD7CB504461A208DF800000020E2
:1015B0008DF8010003E04FF4967002F039FCC82268
:1015C00040A141A0FFF7B6FF0028F4D141480068D0
:1015D000C0434149C1F8B401012C02D0022C30D1E2
:1015E0001AE03EA001F0E0FD272242A101A801F08F
:1015F000EBFD03E04FF4967002F01AFCC82241A103
:1016000001A8FFF797FF0028F4D132480068C043D3
:101610003149C1F8B40114E03BA001F0C5FD2F220F
:1016200034A101A801F0D0FD03E04FF4967002F060
:10163000FFFBC82233A101A8FFF77CFF0028F4D1EB
:1016400000BF00BF012C02D0022C28D116E0364882
:101650002721026835A001F0A7FD33480068FEF796
:10166000D5FD85B2294630480068FFF791FF19483B
:101670000068C0431849C1F8B40110E02D482F217B
:1016800002682AA001F090FD2A480068FEF7BEFD1E
:1016900085B2294627480068FFF77AFF00BF00BFE0
:1016A00025A001F081FD03E04FF4967002F0C0FB2D
:1016B0004FF4967203A16846FFF73CFF0028F3D170
:1016C00001207CBD4F4B000041542B434D47463D0C
:1016D000300D0A00B401224200002242D3C3BBA74E
:1016E000D0E8D2AAB0EFD6FA2CC7EBB9D8D7A20D62
:1016F0000A00000041542B434D47533D25640D0A19
:10170000000000003E000000D3C3BBA7D2D1C0EB55
:10171000BFAAB7FECEF1C7F82CC7EBD6D8B5E3B950
:10172000D8D7A20D0A000000A80B002025642025B0
:10173000730A0000AC0B00204F4B0A00044900E084
:10174000521C11F8013B002BFAD1500870470000E1
:10175000B00A002010B50446062C22D2DFE804F0BF
:1017600003080D12171C0121084600F017FD18E0B0
:101770000121022000F012FD13E00121042000F0FD
:101780000DFD0EE00121082000F008FD09E0012117
:10179000102000F003FD04E00121202000F0FEFCF9
:1017A00000BF00BF10BD70B504460D46164620466A
:1017B000FFF7D0FF32462946204600F05AF820466F
:1017C00000F001F870BD3EB50446204601F096F8E1
:1017D0000546062C33D2DFE804F0030B131B232A43
:1017E0004FF47A70ADF804004820ADF8000026E010
:1017F00040F2E730ADF804004720ADF800001EE0ED
:101800004FF47A70ADF804004820ADF8000016E0FF
:1018100040F2E630ADF804004620ADF800000EE0DE
:101820005920ADF804004F20ADF8000007E040F269
:10183000E730ADF804004720ADF8000000BF00BF5E
:101840000020ADF80600ADF802008DF808006946EA
:10185000284601F001F80121284600F0D1FF0122BD
:101860001146284600F0EFFF0021284600F0CEFF89
:101870003EBDF8B506460C4615464FF4A06000F094
:101880005DFA26B1012E06D0022E0CD107E01C20F5
:101890008DF8000007E01D208DF8000003E01E20F9
:1018A0008DF8000000BF00BF8DF801408DF8025098
:1018B00001208DF80300684600F008FAF8BD2DE914
:1018C000F0410246002500260020002300240027C6
:1018D00091F803C00CF00F0591F803C00CF0100C48
:1018E000BCF1000F03D091F802C04CEA050591F855
:1018F00000C0BCF1000F31D0146800202BE04FF085
:10190000010C0CFA00F3B1F800C00CEA03069E4289
:1019100020D183004FF00F0C0CFA03F7BC4305FAFB
:1019200003FC4CEA040491F803C0BCF1280F06D173
:101930004FF0010C0CFA00FCC2F814C00AE091F858
:1019400003C0BCF1480F05D14FF0010C0CFA00FCAC
:10195000C2F810C0401C0828D1D31460B1F800C0F0
:10196000BCF1FF0F34DD546800202EE000F1080CBC
:101970004FF0010808FA0CF3B1F800C00CEA0306B6
:101980009E4221D183004FF00F0C0CFA03F7BC43A9
:1019900005FA03FC4CEA040491F803C0BCF1280FDB
:1019A00005D100F1080C08FA0CF8C2F8148091F87F
:1019B00003C0BCF1480F07D100F1080C4FF001083B
:1019C00008FA0CF8C2F81080401C0828CED35460E6
:1019D000BDE8F081F0B50A4600230024002100256F
:1019E00000F00046B6F1004F02D11D4EF16901E052
:1019F0001B4E7168C0F3034583B200F44016B6F580
:101A0000401F08D121F07061154E766826F070668F
:101A1000134F7E6012E000F48016B6F5801F06D1E9
:101A2000032606FA05F4A14341F0706106E0460D75
:101A3000360103FA06F6B14341F0706122B1460D5A
:101A4000360103FA06F6314300F00046B6F1004FC6
:101A500002D1034EF16101E0014E7160F0BD000062
:101A6000000001400246002093680B400BB10120AA
:101A700000E000207047416170470161704700BF7E
:101A8000FEE7000010B54FF4A06000F057F9FFF733
:101A900055FE1849086002F0A9F901220021022030
:101AA000FFF781FE4FF4E13001F052FA4FF4165087
:101AB00001F09EFA4FF4165001F0F2FA00F074FDB6
:101AC00000F08EF800F066F800F0C6F9002000F093
:101AD0007EF9002000F089F902E0052002F0A8F963
:101AE0000549064800F070FC0128F6D100F06AF9BB
:101AF00010BD00005C0B00203C2F0020B00B00202C
:101B000010B5044614B10120204908701F48007820
:101B100030B308211E48FFF7A5FF48B110211C482B
:101B2000FFF7A0FF20B120211948FFF79BFFB8B9AC
:101B300000201649087008211548FFF793FF08B9DF
:101B4000012010BD10211248FFF78CFF08B90220B8
:101B5000F7E720210E48FFF785FFA8B90320F0E73B
:101B600008210B48FFF77EFF01280DD110210848FE
:101B7000FFF778FF012807D120210548FFF772FF02
:101B8000012801D1014908700020DAE71C0000207B
:101B9000000C014008B50121082000F01FFB0820BF
:101BA000ADF8000048208DF8030069460B48FFF7A8
:101BB00086FE1020ADF8000048208DF8030069462D
:101BC0000648FFF77CFE2020ADF8000048208DF885
:101BD000030069460148FFF772FE08BD000C014092
:101BE00008B50121142000F0F9FA4FF40050ADF8C7
:101BF000000010208DF8030003208DF802006946D4
:101C00000648FFF75CFE0120ADF800006946044875
:101C1000FFF755FE00200349086008BD0010014091
:101C200000080140B401224200BFFEE730B5ADF527
:101C30000B7D044600254FF480714BA8FEF7B3FAE4
:101C4000012C04D14BA8FFF783FA054600E000BF42
:101C500000BFB5B14BAB0CA211A1684601F0B4FABC
:101C60004BA917A001F0A0FA03E04FF4967002F020
:101C7000DFF84FF4FA7213A16846FFF75BFC002807
:101C8000F3D10DF50B7D30BD2F62726F616463611E
:101C900073742F3232312F74657374320000000078
:101CA00041542B4D545055423D302C302C302C306B
:101CB0002C222573222C222573220D0A00000000FD
:101CC00025730A004F4B00007047000070B50021DB
:101CD00000230F22C47804B3154C246804F4E06494
:101CE000C4F5E064210AC1F10403CA40447804FA4F
:101CF00003F184781440214309010E4C0678A15564
:101D0000047804F01F050124AC4005786D11AD0086
:101D100005F1E025C5F8004109E0047804F01F054D
:101D20000124AC40044D0678761145F8264070BD7C
:101D30000CED00E000E400E080E100E00249014336
:101D4000024A1160704700000000FA050CED00E047
:101D500000B58DB000F036F811A1684601F034FAF4
:101D60006A460021084600F02BF911A1684601F0EF
:101D70002BFA6A460221002000F022F908A16846E9
:101D800001F022FA6A460421002000F019F9FFF759
:101D900091FA3C200A49087000F014F80DB000BD1B
:101DA0002D2D2D2D2D2D2D2D2D2D2D2D2D2D2D0090
:101DB0002D2D2D4E657420427265616B2D2D2D00E9
:101DC0000000002010B5002000F025F810BD10B56F
:101DD00004461CB90021A62000F0A4F9012C03D16F
:101DE0000021A72000F09EF910BD10B504463CB9B3
:101DF0000021C82000F096F90021A12000F092F9FE
:101E0000012C07D10021C02000F08CF90021A02076
:101E100000F088F910BD70B50646002419E004F101
:101E2000B001C8B2002100F07DF90021084600F0A1
:101E300079F90021102000F075F9002505E0012155
:101E4000304600F06FF9681CC5B2822DF7DB601CCC
:101E5000C4B2082CE3DB70BD08B50121042000F0FA
:101E6000BDF9E020ADF8000010208DF8030003203C
:101E70008DF8020069465048FFF721FDE0214E48E9
:101E8000FFF7FBFD0121082000F0A8F90320ADF8C1
:101E9000000010208DF8030003208DF80200694631
:101EA0004648FFF70CFD03214448FFF7E6FD80217B
:101EB0004148FFF7E2FD642001F0BAFF80213E486F
:101EC000FFF7D9FDC82001F0B3FF80213A48FFF7A2
:101ED000D4FD0021AE2000F025F90021084600F0D5
:101EE00021F90021102000F01DF90021402000F010
:101EF00019F90021812000F015F90021CF2000F010
:101F000011F90021A12000F00DF90021C82000F0F6
:101F100009F90021A62000F005F90021A82000F011
:101F200001F900213F2000F0FDF80021D32000F04E
:101F3000F9F80021084600F0F5F80021D52000F05E
:101F4000F1F80021802000F0EDF80021D92000F008
:101F5000E9F80021F12000F0E5F80021DA2000F096
:101F6000E1F80021122000F0DDF80021DB2000F074
:101F7000D9F80021402000F0D5F80021202000F001
:101F8000D1F80021022000F0CDF800218D2000F0D2
:101F9000C9F80021142000F0C5F80021A42000F0A9
:101FA000C1F80021A62000F0BDF80021AF2000F00C
:101FB000B9F8FFF707FF08BD00080140000C014019
:101FC0002DE9F047074688461646002584E030781C
:101FD000A02845DD00253CE0702F04DD002708F136
:101FE000020000F0FF0830783E4911F815108842D1
:101FF0002ED17078012101EB45013A4A515C8842AB
:1020000026D14146384600F077F8002407E004EB7B
:102010004511354A505C012100F084F8641C102CF5
:10202000F5D308F10100C1B2384600F065F800248C
:1020300008E004EB451110312B4A505C012100F0FF
:1020400071F8641C102CF4D307F11000C7B204E03F
:102050006D1C264800688542BED300BFB61C3BE01D
:102060007A2F04DD002708F1020000F0FF08317824
:102070001F48FEF7C1F88146B9F1000F2BD0414649
:10208000384600F039F800240AE099F800102039A9
:1020900004EB0111174A505C012100F043F8641C65
:1020A000082CF2D308F10100C1B2384600F024F840
:1020B00000240BE099F80010203904EB01110831DD
:1020C0000C4A505C012100F02DF8641C082CF1D35F
:1020D00007F10800C7B2761C307800287FF477AF8C
:1020E000BDE8F087B00A0020100600205C0B00203D
:1020F000FB0A00202000002070B504460D4605F1C3
:10210000B001C8B2002100F00DF8102141EA14100E
:10211000002100F007F804F00F00002100F002F8A1
:1021200070BD000070B504460E4626B10121184866
:10213000FFF7A3FC03E001211548FFF79CFC0221F7
:102140001348FFF798FC002517E020211148FFF7FE
:1021500092FC04F0800020B140210E48FFF78DFC76
:1021600003E040210B48FFF786FC20210948FFF7D8
:1021700084FC6006040E681CC5B2082DE5DB022154
:102180000348FFF77AFC01210148FFF776FC70BD98
:10219000000C0140000801407047000029B1064AC8
:1021A000D2690243044BDA6104E0034AD2698243F4
:1021B000014BDA61704700000010024029B1064A65
:1021C00012690243044B1A6104E0034A1269824314
:1021D000014B1A61704700000010024029B1064A05
:1021E00092690243044B9A6104E0034A9269824374
:1021F000014B9A61704700000010024029B1064A65
:10220000D2680243044BDA6004E0034AD268824396
:10221000014BDA60704700000010024030B5002129
:102220000022002400232D4D6D6805F00C0121B122
:10223000042905D0082923D105E0294D056022E0B5
:10224000274D05601FE0254D6D6805F47012234D84
:102250006D6805F48034022505EB92421CB9214DCE
:10226000554305600BE01D4D6D6805F400351DB14B
:102270001C4D5543056002E0194D5543056002E0D1
:10228000174D056000BF00BF144D6D6805F0F001EB
:102290000909154D6B5C0568DD4045600F4D6D68A3
:1022A00005F4E061090A104D6B5C4568DD4085600E
:1022B0000A4D6D6805F46051C90A0B4D6B5C4568A9
:1022C000DD40C560054D6D6805F44041890B074D43
:1022D0006B5CC568B5FBF3F5056130BD00100240CD
:1022E00000127A0000093D007A0B00208A0B0020C2
:1022F00070B504221A491B48006800F06BF91848B1
:102300000068FEF770FB044622460B46154801683C
:1023100015A000F049FF042219491A48006800F08E
:1023200059F917480068FEF75EFB044622460B4643
:102330001448016814A000F037FF194908480068E4
:10234000FEF7BAFB05D3002105480068FEF7AAFB9B
:1023500005D214480249086013480949086070BD55
:10236000B80B0020600B002031B5D8D6B73A3078D2
:10237000255820B6C1C8A13A252E3666200D0A0080
:10238000BC0B0020640B002032B5D8D6B73A3078A9
:10239000255820B6C1C8A13A252E3666200D0A0060
:1023A0000000964304E1CF428FA3F64110B50446E6
:1023B00001F03CFE0348C079012801D102F0F8F990
:1023C000012010BD3C2F002070B505460C46FFF7DC
:1023D0008FFF00202070012070BD704710B500F005
:1023E00001F810BD0CB50020019000903348006842
:1023F00040F480303149086000BF3048006800F484
:10240000003000900198401C0190009818B9019884
:10241000B0F5A06FF1D12948006800F4003010B188
:102420000120009001E0002000900098012843D195
:102430002348006840F01000214908600846006801
:1024400020F0030008600846006840F002000860C1
:102450001A4840681949486008464068486008467C
:10246000406840F4806048600846406820F47C1072
:1024700048600846406840F4E81048600846006834
:1024800040F08070086000BF0C48006800F00070E9
:102490000028F9D00948406820F003000749486047
:1024A0000846406840F00200486000BF03484068AA
:1024B00000F00C000828F9D10CBD0000001002400B
:1024C0000020024010B501234FF47A720D490E48E6
:1024D00002F0F8FA012364220C490D4802F0F2FAE6
:1024E000012341F288320B490B4802F0EBFA06480F
:1024F00002F018FB064802F015FB074802F012FB39
:1025000010BD0000CD490008E8130020894A0008EA
:10251000F8130020B14A000808140020042808D14C
:102520004FF0E021096941F004014FF0E022116110
:1025300007E04FF0E021096921F004014FF0E022AB
:10254000116170477047000010B51348006840F0F3
:1025500001001149086008464068104908400E49CA
:102560004860084600680E4908400B490860084664
:10257000006820F4802008600846406820F4FE00CF
:1025800048604FF41F008860FFF728FF4FF000609D
:102590000449086010BD0000001002400000FFF870
:1025A000FFFFF6FE08ED00E010B501210820FFF75F
:1025B00015FE01210846FFF711FE01210348FFF730
:1025C00009FA01210248FFF705FA10BD00043000A6
:1025D0000002300030B503460D480488B3F1006FA7
:1025E00001D2012030BD4FF0006000EB8420984202
:1025F00001D20220F6E703E018780870491C5B1C42
:10260000101EA2F10105AAB2F6D100BFEAE7000050
:10261000E0F7FF1F2DE9F84F8046894616465648D9
:10262000B0F800A0A8F1006B4FEADB25CBF30A005D
:1026300000900098C0F50067B8F1006F02D2012049
:10264000BDE8F88F4FF0006000EB8A20404501D2D2
:102650000120F5E749484A4948604A484860BE4277
:1026600000DC37467DE0484802F022FB08B102203A
:10267000E6E74FF0006101EBC5200A144349FFF77C
:10268000A9FF414802F014FB08B10220D8E73C48FA
:10269000006940F002003A4908614FF0006000EB29
:1026A000C52048610846006940F04000086136488E
:1026B00002F0FEFA08B10220C2E73148006941F693
:1026C000FD7108402E490861002007E019F800203C
:1026D000009901442D4B5A54411C88B2B842F5DB95
:1026E00000242AE0284802F0E3FA08B10220A7E714
:1026F0002348006940F0010021490861234810F88F
:102700001400012101EB4401204A515C40EA012000
:102710004FF0006101EBC52121F814001A4802F0C6
:10272000C7FA08B102208BE71548006941F6FE712F
:10273000084013490861601C84B2B4F5806FD1DB96
:10274000B74200D10EE0B9446D1C00200090F01B90
:1027500086B2B6F5006F02DD4FF4006000E030464F
:10276000074680E700BF0648006940F08000044942
:102770000861002064E70000E0F7FF1F23016745C0
:1027800000200240AB89EFCD888888001814002013
:1027900010B50121164800F045F838B31548006817
:1027A000401C1449086002F0E5F91248006819213C
:1027B000B0FBF1F201FB120010B900200E490870C5
:1027C0000C4800684FF47A71B0FBF1F201FB120083
:1027D00040B900200749086008484078401C074974
:1027E000487000BF0121024800F00DF810BD000044
:1027F00000080040CC0B0020D00B0020242F00202C
:10280000CA4302827047CA430282704721B10288DC
:1028100042F00102028004E002884FF6FE731A4083
:102820000280704730B50246002000230024158A3C
:1028300005EA0103958905EA010413B10CB10120F1
:1028400000E0002030BD1AB183890B43838102E090
:1028500083898B4383817047002202881D4B9842F5
:102860000ED01D4B98420BD0B0F1804F08D01B4BBF
:10287000984205D01A4B984202D01A4B984204D184
:102880004FF68F731A404B881A43174B984207D064
:10289000164B984204D04FF6FF431A40CB881A4398
:1028A00002808B8883850B8803850A4B98420BD066
:1028B000094B984208D00E4B984205D00D4B9842D8
:1028C00002D00D4B984201D10B7A038601238382FB
:1028D00070470000002C014000340140000400401B
:1028E00000080040000C00400010004000140040B0
:1028F00000400140004401400048014001460229D7
:1029000001D1024800BF00BF70470000000800402E
:1029100010B540F225511D4800F021F910B31B48B5
:1029200000F0D8F9C4B21A48008800F40040C8B9D1
:102930001748008800F4804060B10A2C03D00020C2
:102940001349088020E01248008840F400401049F4
:10295000088019E00D2C06D10D48008840F4804015
:102960000B49088010E00A480088C0F30D000949AF
:102970000C5407480088401C054908800846008818
:10298000C72801DD0020088010BD0000003801408C
:10299000780B0020591D002010B540F22551204829
:1029A00000F0DDF8002839D01D4800F093F9C4B2DA
:1029B000242C02D100201B4908801A480188008875
:1029C000401C184A108018484454007824281ED10E
:1029D000154800794D281AD113484079432816D15B
:1029E0000A2C14D150211148FDF7DDFB0D48028857
:1029F0000D490E48FDF7BEFB01200C4981F850003F
:102A0000002008490880C8210748FDF7CCFB05488D
:102A10000088C82802DBC8200249088010BD0000D9
:102A2000004400406A0B0020911C0020181C00206C
:102A300010B540F225510E4800F091F8B0B10D48A4
:102A40000088FF2802D900200A4908800848001D94
:102A50000088C1B2074802880088401C054B1880D6
:102A6000054881542021024800F008F810BD0000FC
:102A700000480040A40B00202126002001F4007231
:102A8000B2F5007F00D100BFCA430280704721B178
:102A9000828942F40052828104E082894DF6FF73FC
:102AA0001A4082817047000010B5044620488442D5
:102AB00009D101218803FFF7A1FB00214FF48040D9
:102AC000FFF79CFB32E01B48844209D101214804F6
:102AD000FFF774FB00214FF40030FFF76FFB25E098
:102AE0001548844209D101218804FFF767FB0021C2
:102AF0004FF48020FFF762FB18E01048844209D1B0
:102B00000121C804FFF75AFB00214FF40020FFF712
:102B100055FB0BE00A48844208D101210805FFF764
:102B20004DFB00214FF48010FFF748FB10BD000063
:102B3000003801400044004000480040004C004084
:102B40000050004002460020B1F5007F00D100BFD8
:102B500013880B400BB1012000E00020704770B5D6
:102B60000246002400230025002040F66A16B142E8
:102B700000D100BFC1F3421501F01F03012606FA80
:102B800003F3012D02D19689334006E0022D02D1D4
:102B9000168A334001E0968A33400C12012606FA69
:102BA00004F41688344013B10CB1012000E0002079
:102BB00070BDF0B50346002400260025002040F635
:102BC0006A17B94200D100BF1846C1F3421401F0A0
:102BD0001F06012707FA06F5012C01D10C3004E08D
:102BE000022C01D1103000E014301AB107682F43D5
:102BF000076002E00768AF430760F0BD2DE9F047CA
:102C000086B005460E460024A24600BFA146002716
:102C1000B08900B100BF2F462C8A4CF6FF700440EB
:102C2000F08804432C82AC894EF6F3100440B0883F
:102C300031890843718908430443AC81AC8A4FF65B
:102C4000FF400440B0890443AC8201A8FFF7E6FAD4
:102C50001F48874202D1DDF810A001E0DDF80CA08A
:102C6000A88900F4004040B10AEBCA0000EB0A104A
:102C700031684900B0FBF1F807E00AEBCA0000EB4D
:102C80000A1031688900B0FBF1F86420B8FBF0F05D
:102C900004012009642101FB1089A88900F4004087
:102CA00040B1322000EBC900B0FBF1F000F00700AA
:102CB000044308E0322000EB09106421B0FBF1F07E
:102CC00000F00F0004432C8106B0BDE8F08700003F
:102CD0000038014001468888C0F308007047C1F3FE
:102CE000080282807047000000B58DB03A488078B5
:102CF000012807D03848007A012803DC3648407A9A
:102D0000012806DD35480068C0433549C1F8800117
:102D100002E00020314908602F48C07A012829D1FB
:102D2000FFF750F82FA1684600F04EFA6A460021DE
:102D30000846FFF745F92FA1684600F045FA6A46B4
:102D400002210020FFF73CF926A1684600F03CFA7A
:102D50006A4604210020FFF733F90220FEF722FC27
:102D600002201D49C8720020264908704FF4967051
:102D700001F05EF81848007B012829D1FFF722F8FE
:102D800018A1684600F020FA6A4600210846FFF7BD
:102D900017F918A1684600F017FA6A4602210020C8
:102DA000FFF70EF90FA1684600F00EFA6A460421FB
:102DB0000020FFF705F90120FEF7F4FB0220064989
:102DC000087300200F4908704FF4967001F030F836
:102DD00001200DB000BD00003C2F002080012142E9
:102DE000000021422D2D2D2D2D2D2D2D2D2D2D2D64
:102DF0002D2D2D002D2D53656E644D61737361670C
:102E0000652D2D000000002030B58DB03748C07909
:102E1000012832D136A1684600F0D6F96A46002171
:102E20000846FFF7CDF836480068FDF7DCFD04469C
:102E300022460B4633A1684600F0C6F96A460221D5
:102E40000020FFF7BDF833480068FDF7CCFD0446CD
:102E500022460B462BA1684600F0B6F96A460421CB
:102E60000020FFF7ADF82CA1684600F0ADF96A46E6
:102E700006210020FFF7A4F835E01C48C07900289F
:102E800031D129A1684600F09FF96A460021084621
:102E9000FFF796F81A480068FDF7A5FD044622469C
:102EA0000B4618A1684600F08FF96A4602210020FF
:102EB000FFF786F817480068FDF795FD044622469F
:102EC0000B4610A1684600F07FF96A4604210020F5
:102ED000FFF776F818A1684600F076F96A460621F1
:102EE0000020FFF76DF801200DB030BD3C2F002011
:102EF000B6A8CEBBB3C9B9A63A20CAB5CAB120009C
:102F0000B80B0020BEADB6C83A20252E366620206C
:102F100020202000BC0B00200920D7B4CCACD5FD6C
:102F2000B3A3202020200000B6A8CEBBCAA7B0DCE7
:102F30003A20BCC7D2E42000C7EBB5BDBFAAC0ABE6
:102F4000B5D8B4F8B6A8CEBB0000000000BFFEE7BD
:102F500010B586B00446012144F20400FFF73EF9A3
:102F60004FF40070ADF8140003208DF816001820FF
:102F70008DF8170005A91C48FEF7A1FC4FF48060EE
:102F8000ADF8140004208DF8170005A91648FEF7C7
:102F900096FC25208DF8000003208DF801008DF8A7
:102FA000020001208DF803006846FEF78FFE0194B1
:102FB0000020ADF80800ADF80A00ADF80C00ADF83F
:102FC00010000C20ADF80E0001A90848FFF716FE0E
:102FD000012240F225510548FFF7EBFD012103488E
:102FE000FFF755FD06B010BD000801400038014054
:102FF00010B586B0044601210420FFF7EFF8012147
:103000004804FFF7CBF82448FFF74EFD0420ADF845
:10301000100003208DF8120018208DF8130004A969
:103020001E48FEF74CFC0820ADF8100004208DF877
:10303000130004A91948FEF742FC00940020ADF8E3
:103040000400ADF80600ADF80800ADF80C000C2047
:10305000ADF80A0069461048FFF7D0FD01210E487F
:10306000FFF715FD012240F225510B48FFF7A1FDA6
:1030700026208DF8140002208DF8150003208DF80D
:10308000160001208DF8170005A8FEF71FFEFDF7BA
:103090009DFF06B010BD0000004400400008014044
:1030A00010B586B0044601210820FFF797F80121EA
:1030B0008804FFF773F818208DF817004FF480602C
:1030C000ADF8140003208DF8160005A91D48FEF781
:1030D000F6FB04208DF817004002ADF81400032021
:1030E0008DF8160005A91748FEF7E9FB01940020AA
:1030F000ADF810000C20ADF80E000020ADF80C006B
:10310000ADF80A00ADF8080001A90F48FFF776FDF9
:1031100001210D48FFF7BBFC012240F225510A486E
:10312000FFF747FD27208DF8000001208DF80300F0
:103130008DF801008DF802006846FEF7C7FD06B065
:1031400010BD0000000C01400048004070B504466E
:103150000D4600260DE014F8011B0748FFF7BFFDE0
:1031600000BF40210448FFF7EDFC0028F9D0701C97
:1031700086B2AE42EFDB70BD0048004010B50422BD
:10318000054906480068FFF745FA04220449054846
:103190000068FFF73FFA10BDB80B0020600B00205D
:1031A000BC0B0020640B00200FB4054B10B503A925
:1031B000044A029800F058F910BC5DF814FB0000B6
:1031C000993E0008740B00200FB4084B10B504A9F9
:1031D00002AA039800F048F9044602A9002000F072
:1031E000DAFC204610BC5DF814FB0000973B000899
:1031F00030B528B1144C031F002021680A4605E0B1
:10320000084630BD9A4203D810465268002AF9D1C8
:10321000002800D041680BD00468A3EB0005A5424C
:1032200004D11B681C440346046002E0436000E0D4
:1032300023603AB11C68D51AA54203D115682C4405
:103240001C6052685A6030BDDC0B00202DE9F0474D
:1032500082460F4C10480D4E0E4F001B4FF00008D9
:1032600020F007054FF0010900221146504600F0FA
:103270004DFE002802D1306810B10020BDE8F08773
:103280003C60C4E90058C6F80090EDE7E00B002070
:10329000542F0020DC0B0020503B00200148006828
:1032A00070470000E40B002002E008C8121F08C1AC
:1032B000002AFAD170477047002001E001C1121FB7
:1032C000002AFBD1704700000149086070470000E8
:1032D000E40B00202DE9FF5F82B00021DDE904301E
:1032E000020DDDF840B0034318D044F61050A2F2AE
:1032F000FF3242431514119801281FD0A5EB0B0093
:10330000401C5FEA000A4FF000064E4FDFF838918C
:10331000B046504615D5CAF1000413E011980124B7
:103320004AA3012801D16FEA0B010298119AC0E962
:103330000031C0E9024206B0BDE8F09FCBF10000C9
:10334000DFE704460021404A491842EB0450CDE92A
:10335000001012E0E00707D032463B46404649469F
:10336000FDF797FA8046894632463B461046194695
:10337000FDF78FFA06460F466410002CEAD1DDE90E
:103380000401DDE90023BAF1000F06DAFDF781FA46
:1033900042464B46FDF77DFA05E0FDF711FD42463A
:1033A0004B46FDF70DFD04460E460022284BFDF767
:1033B00045FB03D84FF0FF30014607E00022254BC4
:1033C00020463146FDF7BEF9FDF775FD102409E0F2
:1033D000002C0ADB0A220023FDF78EFB039B303210
:1033E0001A55641E50EA0102F2D1641C039AC4F11A
:1033F00011031444119A012A03D0012208430DD16C
:103400000AE0084304D000204FF0110B119072E73E
:10341000A3EB0B056D1E0DE05B4504DD4FF00002D4
:1034200005F1010504E003DA4FF00002A5F1010502
:10343000002AECD002981199C0E90231C0E9004598
:1034400079E70000000014400000F03F3000000069
:103450000000F0430000E03F30380A2801D201208C
:1034600070470020704700002DE9FF4F95B09B4644
:103470008946064600250FE2252877D100242746F5
:10348000F84A0121059400E0044316F8013F203B6F
:1034900001FA03F01042F7D130782A2811D06FF0EA
:1034A0002F033078A0F13002092A16D8059A44F08B
:1034B000020402EB820203EB42021044761C0590E8
:1034C000EFE759F8042B0592002A03DA504244F43E
:1034D0000054059044F00204761C30782E2816D152
:1034E00016F8010F44F004042A280DD06FF02F02C3
:1034F0003078A0F13003092B09D807EB870302EBE2
:103500004303C718761CF3E759F8047B761C307820
:103510006C280FD006DC4C2817D068280DD06A28FC
:1035200014D104E0742810D07A280FD10DE044F4AF
:1035300000140AE044F4801401E044F4401472786A
:10354000824202D104F58014761C761C30786628FD
:103550000BD013DC582877D009DC002875D045281B
:10356000F6D04628F4D047281AD19DE118E0632808
:1035700035D0642879D0652812D195E1702873D0B0
:1035800008DC6728F1D069286FD06E280DD06F282D
:1035900006D1B5E073282CD0752875D0782874D062
:1035A0005A46179990476D1C75E1C4F302500228E2
:1035B00009D003280DD0D9F8001004280DD00D60D3
:1035C00009F1040967E1D9F80010EA17C1E90052CE
:1035D000F6E7D9F800100D80F2E70D70F0E719F862
:1035E000041B8DF8001000208DF80100EA46012030
:1035F00003E059F804AB4FF0FF3061074FF00001D2
:1036000002D40DE008F101018846B9420FDA804585
:10361000F8DB1AF808100029F4D108E008F10101DC
:1036200088468142FADB1AF808100029F6D105987D
:103630005B46A0EB080721463846179A00F094FA3B
:10364000284400EB080507E04DE029E10DE01AF8F9
:10365000010B5A4617999047B8F10108F7D25B461B
:1036600021463846179A13E142E00A220092C4F339
:1036700002524FF0000A022A08D059F804CB032A5C
:103680004FEAEC710AD00DE029E02AE009F10701C8
:1036900021F00702F2E802C1914609E00FFA8CFC22
:1036A0004FEAEC71042A03D14FFA8CFC4FEAEC711B
:1036B000002907DA0A460021DCF1000C61EB020167
:1036C0002D2202E0220504D52B228DF804200122B0
:1036D00003E0E20701D02022F7E7904659E00A21F3
:1036E00002E010220DE010214FF0000A00910BE0E3
:1036F00010224FF0000A44F004040827009203E06F
:1037000008224FF0000A0092C4F30252022A05D0A8
:1037100059F804CB0021032A08D009E009F1070178
:1037200021F00702F2E802C1914605E01FFA8CFC85
:10373000042A01D10CF0FF0C4FF00008220728D515
:10374000702806D0009B83F0100353EA0A0305D0CB
:103750000EE040228DF80420012208E05CEA01021C
:1037600006D030228DF804208DF805000222904604
:10377000009B83F0080353EA0A030AD15CEA0102C2
:1037800001D1620705D530228DF804204FF00108E1
:103790007F1E582804D034A003900EA802900DE09C
:1037A00036A0F9E753466046009AFDF7A5F984462E
:1037B0000398825C0298401E029002705CEA01004D
:1037C000F0D1029806A9081A00F1200A600702D574
:1037D00024F4803400E00127574502DDA7EB0A00FE
:1037E00000E0002000EB0A01009005984144401AD7
:1037F0000590E00306D45B462146179A059800F031
:10380000B3F90544002706E001A85A46C05D1799A0
:1038100090476D1C7F1C4745F6DBE0030CD55B46EB
:103820002146179A059800F09FF9054404E03020DE
:103830005A46179990476D1C0099481E0090002920
:10384000F5DC08E0029802995A460078491C02917A
:10385000179990476D1CBAF10001AAF1010AF1DC39
:1038600065E1000009280100303132333435363744
:1038700038396162636465660000000030313233BC
:10388000343536373839414243444546000000005C
:1038900000F058F90544761C307800287FF4ECAD30
:1038A00019B02846BDE8F08F620700D4062709F159
:1038B000070222F0070CFCE80223E14603F000486F
:1038C0005FEA080C02D00FF2702C0DE05FEA045C96
:1038D00002D50FF2682C07E05FEAC47C02D00FF239
:1038E000602C01E0AFF2700C4FF0FF3823F0004382
:1038F000CDF850C065280CD006DC452809D04628F4
:103900001DD047283DD13DE0662818D067287ED1DC
:1039100038E00021112F01DB112000E0781CCDE9F7
:10392000000106A90EA8FFF7D5FCDDE90F010E9AEC
:1039300003910021009207F1010A04914DE04FF03C
:1039400000400097CDE9011006A90EA8FFF7C2FCC0
:10395000DDE90F0203920E9B11990022DDF80CA005
:103960000093049211B9791C00EB010AB7EB0A002D
:1039700004D4C0F1FF3007F1010A0490AAEB07005C
:10398000019044E0012F00DA01270021112F01DD11
:10399000112000E03846CDE9000106A90EA8FFF786
:1039A00099FCDDE90F010E9A039100210491009228
:1039B000BA4621070CD40399514500DA8A46BAF178
:1039C000010F05DD009AAAF10101515C302908D0F0
:1039D000B84202DA10F1040F06DA0121CDE9011034
:1039E00015E0AAF10101E9E7002805DC049901448A
:1039F0000491AAEB000102E0411C514500DD8A461A
:103A00000499401A401C01904FF00040029020079A
:103A100004D40198504501DBCDF8048000208DF8D6
:103A20004F0002980DF14F07B0F1004F25D02B2029
:103A30000E9002984FF0020800280CDA40420290E3
:103A40002D200E9007E00A210298FDF73FF8303153
:103A5000029007F8011DB8F10001A8F10108F2DC9D
:103A600002980028EFD1791E0E980870307800F087
:103A7000200040F0450007F8020D12A8C01B00F11D
:103A800007081498007800B1012000EB0A010198A2
:103A900001EBE07105984144401A401E0590E00397
:103AA00006D45B462146179A059800F05DF8054458
:103AB0001498007818B15A46179990476D1CE00386
:103AC00024D55B462146179A059800F04DF8054429
:103AD0001CE00498002807DBDDE90301884203DDD0
:103AE0000098405C179901E0179930205A4690479A
:103AF000049805F10105401C04900198401E0190B6
:103B000004D12E205A46179990476D1CBAF1000136
:103B1000AAF1010ADDDC05E017F8010B5A461799F6
:103B200090476D1CB8F10001A8F10108F4DC5B4678
:103B30002146179A0598ABE62D0000002B000000E7
:103B4000200000002DE9F041044600251E461746DE
:103B5000880404D405E039462020B0476D1C641E5B
:103B6000F9D52846BDE8F0812DE9F041044600254D
:103B70001E469046C80301D5302700E02027880460
:103B800004D505E041463846B0476D1C641EF9D5A2
:103B90002846BDE8F0810A68531C0B60107070471E
:103BA00030B583B00446FFF779FB05460020CDE928
:103BB0000000024621466846FDF73BF82846FFF71D
:103BC00083FBDDE9000103B030BD014609B108689F
:103BD00008B90020704719B1D1E90120904201D302
:103BE0000846F7E702E08868401C886041B1D1E9E7
:103BF0000120904204D28A680868805C2028F2DDA7
:103C0000D1E90120904202D18868401E88600846B0
:103C1000E0E7000070B50446002522E02568A08991
:103C200000F4807020B9A06810B1A068FFF7F2FF1F
:103C3000A08900F4807028B9206918B10A4A206967
:103C400051688847A08900F4007028B9206A18B12B
:103C5000054A206A516888470348416820468847DA
:103C60002C46002CDAD170BD980B002070B50446AC
:103C70000D4600222946204600F01EF970BD70B5A1
:103C8000044628202168884705461DB1282128467A
:103C9000FCF789FA284670BD10B50446002211468B
:103CA000204600F06BF810BD2DE9F0478AB00446BD
:103CB0000E46154698461C2103A8FCF774FA002707
:103CC00000202C490860486004B106B932E0039432
:103CD000049600200590284A07CA07AB07C3264868
:103CE000FFF7CDFF074607B924E003A800F042FE26
:103CF0008246FFF76AFF81464946384600F0BAFC23
:103D000000B917E0B8F1000F0BD003A8FFF75DFF73
:103D1000DDE90410884203D205990398405C00B1A4
:103D200008E01DB1059903980844286038460AB098
:103D3000BDE8F08717B13846FFF76CFFC4B10194B6
:103D400000200290DDE90410884202D2059802901A
:103D500004E0049810B10498401E02901DB1DDE902
:103D60000101084428600348DDE9011206C000BFD4
:103D70000020DCE7900B0020980B00202DE9F0419B
:103D800004460D46164614B90020BDE8F0812046D1
:103D9000FCF73CFA471C33462A4639462046FFF7D3
:103DA00083FFF2E770B504460D4604B10DB901205A
:103DB00070BDAC4201D10020FAE705E0207808B9D7
:103DC0000020F5E7641C6D1C2078FCF7CDF9064651
:103DD0002878FCF7C9F98642F0D02078FCF7C4F9BE
:103DE00006462878FCF7C0F9301AE1E710B56FF005
:103DF0000400FEF793FB0A4800680A49B0FBF1F0A3
:103E0000094908700846007800EB4001C1EBC0107A
:103E10004FF6FF7101EAC0000449088010BD0000A0
:103E20000800002000127A006E0B0020700B0020AA
:103E30000146114A12884A434FF0E0235A6100229A
:103E40009A611A46126942F001021A6100BF4FF0EE
:103E5000E022106900F001021AB100F48032002A59
:103E6000F5D04FF0E022126922F001024FF0E0237A
:103E70001A6100229A617047700B0020044603E02B
:103E8000214602A0FFF790F9FAE700004552524F91
:103E90005225640D0A00000000BF054A128802F096
:103EA0004002002AF9D0C2B2014B1B1D1A80704794
:103EB000003801402E2070472DE9F04105460E469E
:103EC0001746002405B116B90020BDE8F081AC68A2
:103ED0005FB100E024688CB1206A78B13046216A75
:103EE000FCF79BF90028F5D108E000E024682CB12C
:103EF0003046216AFFF756FF0028F7D10CB1206A3F
:103F000008B90020E1E72046DFE700002DE9F04195
:103F10000B3020F00706104D19E02068B04215D391
:103F2000B0420AD9871B201DD4F80480FCF722F97F
:103F3000A019C0E90078286004E060682860201DAE
:103F4000FCF718F9201D2660BDE8F081251D2C68BE
:103F5000002CE2D10020F7E7DC0B00200024FEF764
:103F6000B1FAFDF78FFD0120114908606420FFF7C9
:103F70005FFF00200F49C1F88001FDF7E9FE012134
:103F80000D48FEF743FC11E000F0ACFD0020FDF70A
:103F90009DF8044614B1204600F012F80748007856
:103FA00020B9FDF721F8012004490870ECE7000072
:103FB000800121420000214200080040D00B002077
:103FC00070B5044600252046FFF766FE054615B984
:103FD0000DA0FFF7E9F821460FA0FFF7E5F80FA1C4
:103FE0002846FFF743FE067D012E07D10CA1284687
:103FF000FFF73CFE007D0C49C87200E000BF00BF27
:104000002846FFF707FE70BD706172736520666118
:10401000696C2E0A0000000025730A00636D6400BD
:104020004D617373676165003C2F0020F8B5002671
:10403000374890F85000002869D00020344981F8B2
:10404000500000BF61E046B932A13148FCF7C2F828
:10405000041E58D10120FFF711FF641C2DA120463A
:10406000FCF7B8F8051E4BD0072E2ED2DFE806F07D
:104070002D040B11181F26002A1B214624485230FC
:10408000FCF778F822E02A1B21466846FCF772F814
:104090001CE02A1B21461E485D30FCF76BF815E03A
:1040A0002A1B21461A486830FCF764F80EE02A1BE8
:1040B000214617486A30FCF75DF807E02A1B2146C5
:1040C00013487630FCF756F800E000BF00BF2C46DE
:1040D00001200F4981F851009DF80000412806D1C8
:1040E00001200D49C8710A4981F878000BE09DF85C
:1040F0000000562807D10020054981F8780002E029
:104100000220FFF7BBFE701CC6B2062E9BDDF8BD79
:10411000181C00202C0000003C2F00202DE9F0414D
:1041200080460C4600250027E068B0F57A7F02D370
:104130000020BDE8F081E068401CE060A1682068D4
:10414000405C5B2800D05FE0A068401CA060204677
:10415000FFF73BFD4CB1D4E90110884205D2A168BC
:104160002068405C5D2800D13FE01CB1D4E901101B
:10417000884203D3A068401EA06045E0A068401EAE
:10418000A06000BF04F11000FFF779FD064606B9F4
:104190003AE015B93546374602E03E60776037466B
:1041A000A068401CA0602046FFF70FFD214638465E
:1041B00000F060FA00B927E02046FFF706FD44B1A1
:1041C000D4E90110884204D2A1682068405C2C2800
:1041D000D8D044B1D4E90110884204D2A168206843
:1041E000405C5D2800D00FE000BFE068401EE0604A
:1041F00005B16F602020C8F80C00C8F80850A0680E
:10420000401CA060012094E715B12846FFF702FD8D
:1042100000208EE702460023002100BF23E0505C0F
:10422000302806DB505C392803DC505C303803440E
:1042300015E0505C412806DB505C462803DC505CEE
:10424000373803440BE0505C612806DB505C66287D
:1042500003DC505C5738034401E000207047032919
:1042600000D21B01491C0429D9D31846F6E70000E7
:104270002DE9F04391B080460C4600BF002010901D
:10428000FFF718FE814600250CB1206818B9002000
:1042900011B0BDE8F08300253CE0A1682068084427
:1042A000405D342820D00ADCA0F12B0009282ED252
:1042B000DFE800F0202D212A2D16171819003828C4
:1042C00016D006DC352810D036280FD037281ED15E
:1042D0000DE039280DD045280FD0652817D10BE007
:1042E00000BF00BF00BF00BF00BF00BF00BF00BFD6
:1042F00000BF00BF00BF00BF00BFA1682068084426
:10430000405D0DF8050003E00DF8059000E00AE0BF
:1043100000BF6D1C3F2D05D224B1A0682844616800
:104320008842BAD300BF00200DF8050010A96846E6
:1043300000F03EFB06460F4668461099884201D1C0
:104340000020A5E7C8E90667144A154B30463946F0
:10435000FCF774FB04D86FF00040C8F8140011E0BB
:104360000022104B30463946FCF750FB04D84FF082
:104370000040C8F8140005E030463946FCF714FB4D
:10438000C8F814000820C8F80C00A0686A46109904
:10439000891A0844A06001207AE700000000C0FFED
:1043A000FFFFDF410000E0C12DE9F04180460C46EF
:1043B00000260025E068B0F57A7F02D30020BDE832
:1043C000F081E068401CE06044B1D4E9011088420B
:1043D00004D2A1682068405C7B2800D07DE0A06802
:1043E000401CA0602046FFF7F0FB4CB1D4E901105F
:1043F000884205D2A1682068405C7D2800D15DE03C
:104400001CB1D4E90110884203D3A068401EA0600B
:1044100063E0A068401EA06000BF04F11000FFF739
:104420002EFC074607B958E016B93E463D4602E065
:104430002F607D603D46A068401CA0602046FFF7CD
:10444000C4FB2146284600F04EF800B945E020465E
:10445000FFF7BBFB286928620020286144B1D4E93A
:104460000110884204D2A1682068405C3A2800D03C
:1044700033E0A068401CA0602046FFF7A6FB214661
:10448000284600F0F7F800B927E02046FFF79DFB2B
:1044900044B1D4E90110884204D2A1682068405C8C
:1044A0002C28BAD044B1D4E90110884204D2A168C2
:1044B0002068405C7D2800D00FE000BFE068401E0F
:1044C000E06006B175604020C8F80C00C8F80860CC
:1044D000A068401CA060012071E716B13046FFF7CC
:1044E00099FB00206BE72DE9F84F80460C46A16848
:1044F00020680844461CA16820680844451C002028
:1045000000900027A1682068405C222800D0A6E027
:104510004FF0000AD1460DE028785C2809D1681CCC
:104520002168401A6168884200D398E009F10109C6
:104530006D1C6D1C2068281A6168884202D2287898
:104540002228E9D12068281A6168884202D2287896
:10455000222800D083E0A16820680844281AA0EB34
:10456000090A0AF1010021698847074607B976E080
:10457000009761E030785C2807D016F8010B0099AD
:1045800008700098401C009056E04FF00209A81BEC
:10459000012800DA63E07078662819D008DC222848
:1045A00032D02F2832D05C282FD0622840D108E0AA
:1045B0006E2814D0722819D074281ED0752837D1CF
:1045C0002BE00820009908700098401C009030E013
:1045D0000C20009908700098401C009029E00A20E7
:1045E000009908700098401C009022E00D2000996E
:1045F00008700098401C00901BE00920009908708A
:104600000098401C009014E000BF00BF7078009933
:1046100008700098401C00900BE06A46294630461E
:1046200000F0B0FA8146B9F1000F00D117E000E0C8
:1046300015E000BF4E4400BFAE429BD3002000995E
:1046400008701020C8F80C00C8F810702068281AEC
:10465000A060A068401CA0600120BDE8F88F17B1E1
:1046600038466169884716B12068301AA06000207A
:10467000F3E7000070B505460C460CB1206808B998
:10468000002070BD9CB1A068001D616888420ED8F2
:10469000A2682168881804223FA1FBF7CCFD30B93D
:1046A0000420E860A068001DA0600120E9E79CB13B
:1046B000A068401D616888420ED8A26821688818E9
:1046C000052237A1FBF7B7FD30B90120E860A068EB
:1046D000401DA0600120D4E7ACB1A068001D616856
:1046E000884210D8A2682168881804222EA1FBF7FE
:1046F000A2FD40B90220E86001206861A068001DA9
:10470000A0600120BDE76CB1D4E90110884209D254
:10471000A1682068405C222804D121462846FFF782
:10472000E2FEAEE7BCB1D4E90110884213D2A16821
:104730002068405C2D2809D0A1682068405C3028A2
:1047400009DBA1682068405C392804DC2146284642
:10475000FFF78EFD95E76CB1D4E90110884209D2CC
:10476000A1682068405C5B2804D121462846FFF7F9
:10477000D5FC86E76CB1D4E90110884209D2A16862
:104780002068405C7B2804D121462846FFF70CFEB8
:1047900077E7002075E700006E756C6C0000000084
:1047A00066616C736500000074727565000000003E
:1047B0002DE9FC474748FFF7F3F90446FCF756F9A3
:1047C0004549086043480D38FFF7EAF90446FCF70D
:1047D0004DF94249086008460068FCF704F90446B0
:1047E0000D463D480068FCF7FEF8064632460B468B
:1047F0003BA0CDE90045FEF7D7FC3E4936480068AE
:10480000FBF762FF0446FCF7BBF83B4908703949E7
:1048100032480068FBF758FF0446FCF7B1F8374907
:10482000087035480078FCF7A6F8804631492A48D8
:104830000068FBF749FF81464146FBF70DFF06463E
:104840002C49FBF70FFF05462D49FBF73DFF0446BA
:1048500029480078FCF78FF807462146FBF7AAFEA7
:104860001D49086025480078FCF785F880462149F5
:104870001A480068FBF728FF81464146FBF7ECFE2B
:1048800006461C49FBF7EEFE05461D49FBF71CFFDB
:1048900004461A480078FCF76EF807462146FBF7F5
:1048A00089FE0E49086001201649C87109486A3816
:1048B00090F8510058B1002006496A3981F851003A
:1048C000084690F8780010B1002081F87800BDE823
:1048D000FC870000821C0020B80B0020BC0B0020CD
:1048E000CEACB6C8203D20252E366620252E366655
:1048F0000D0A00000000C842C00B0020C10B0020C0
:10490000000070423C2F00202DE9F04704008A4649
:1049100016D054F8047CD4F800903E1F564500D9B8
:1049200056462046FEF764FC054688463246214638
:104930005046FFF7EBFA40B1C0F80090BDE8F087B1
:10494000BDE8F0470846FEF781BC44E9017955B15E
:1049500029686A18211F8A4202D9611B091F296030
:10496000C5F80480EAE7024AC2F80080E6E70000E2
:10497000DC0B002010B504461CB1206808B1A0680B
:1049800008B1002010BD7CB1A068001D616888429C
:104990000AD2A26821688818032204A1FBF74BFC05
:1049A00010B9A068C01CA0602046EBE7EFBBBF00B9
:1049B00000B583B00A460021CDE9001101466846E2
:1049C000FCF737F9DDE9000103B000BD00B58DB09B
:1049D00023480078002822D1FDF7F4F921A1684688
:1049E000FEF7F2FB6A4600210846FDF7E9FA21A12D
:1049F0006846FEF7E9FB6A4602210020FDF7E0FA6F
:104A000018A16846FEF7E0FB6A4604210020FDF786
:104A1000D7FA3C2012490870FDF7D4F900BFFCF723
:104A2000BBFAFEF7F1F91748C079401C1549C87167
:104A30000846C079082810DB08468079401C887138
:104A400008468079012801DB012088710D48007833
:104A500018B90C4880790B4908700DB000BD0000F2
:104A6000000000202D2D2D2D2D2D2D2D2D2D2D2D0A
:104A70002D2D2D002D2D2D4E657420427265616BFC
:104A80002D2D2D00242F002010B50648FDF78EFC9B
:104A9000FEF72AF904480068C0430449C1F8B4018C
:104AA00010BD0000242F0020B40122420000224249
:104AB00010B50348C079012801D1FEF75FFB10BD96
:104AC0003C2F002010B58160054C2468144404601C
:104AD0000024C4600BB1426001E00024446010BDBA
:104AE000C80B002010B50D48046813E00C4920687D
:104AF0000968401A00280CDC606818B9204600F0EC
:104B000027F804E006496068096808442060A06846
:104B10008047E468002CE9D110BD0000C40B0020E0
:104B2000C80B002001460948026805E08A4202D10C
:104B30004FF0FF307047D268002AF7D10348006871
:104B4000C860024801600020F4E70000C40B0020A8
:104B50000246074808E00168914202D1CB68036031
:104B600001E001F10C0000BF01680029F3D170479A
:104B7000C40B002002480068401C014908607047CF
:104B8000C80B00202DE9FF5F8046894615460024AA
:104B90000026C24600200390834602900190A9EBB4
:104BA0000A00062800DA81E00AF10200FFF732FB72
:104BB0000646B6F55C4F03D3B6F5604F00D275E0FC
:104BC000B6F5584F29D3B6F55C4F26D20AF1060741
:104BD000002000900C200290A9EB0700062800DAC4
:104BE00064E038785C2802D17878752800D05DE0E0
:104BF000B81CFFF70FFB00900098B0F55C4F03D393
:104C00000098B0F5604F00D350E0C6F3090100985A
:104C100061F39F2000F5803402E0062002903446C4
:104C2000802C02D20120039018E0B4F5006F04D26A
:104C300002200390C020019010E0B4F5803F04D220
:104C400003200390E020019008E0B4F5881F04D20F
:104C500004200390F020019000E027E00398401E1C
:104C600000F0FF0B0BE004F0BF0040F0800029686B
:104C700001F80B00A409ABF1010000F0FF0BBBF140
:104C8000000FF0DC0398012804DD01982043296817
:104C9000087003E004F07F00296808702968039811
:104CA00008442860029804B0BDE8F09F0020FAE7AD
:104CB000014600BF0648C06800F0010018B1081E98
:104CC000A1F10101F6D109B9012070470020FCE7EC
:104CD00000200240DDDDDDDDDCBBBBDDDDDDDDDD5B
:104CE000DDDDDDDD98888888888888887777777724
:104CF00077888888855555566666666666666666F0
:104D0000666888888333333222222222222222229A
:104D10002228888D2F62726F6164636173742F32F1
:104D200032312F746573743100000000303031313E
:104D3000303030443931363836313536353537361E
:104D400036334632303030384646313837353238EF
:104D500036323337393730303839383135453245E6
:104D600035324139303032433842463735313733C6
:104D700036434538303032313030323100000000B7
:104D800030303131303030443931363836313536E3
:104D900035353736363346323030303846463230A5
:104DA0003735323836323337354446323739424276
:104DB0003546303036373044353241313533334182
:104DC0003030324338424637393143443730423944
:104DD0003531373336434538303032313030323187
:104DE00000000000044E000800000020E80B000056
:104DF000400F000838560008E80B00206833000018
:104E0000B83200084113144D120884A24A04000A63
:104E10001601020304060708090172F852331C1038
:104E20000C0603912C40C07803112C043F0403218D
:104E3000367088FC0830261820FF211E14F008F078
:104E400033E0184D211C031E11338870000C101E16
:104E50002123241927211010160E45E018040225DD
:104E6000071820403D020418E0692C201807071796
:104E70004080F08040403F0202010F0102283AF0DA
:104E8000C41C01011F04912B80B066B1191D2901BA
:104E9000912A30A5592C146018043C6018061D1E78
:104EA000E010080810721F0F102020100FF0531090
:104EB000F83620203F20203C700808C21E302824ED
:104EC0002221441E3008888848082E1820202011EE
:104ED000CC3BC0203227070424243F241AF8202387
:104EE00008084B19212036E0108888184B0F111044
:104EF0001E380808C8382021523F1A702E29608FAA
:104F00001C222121221C90111D3122221190196195
:104F1000CAC0C26A80C659081C402010501701023E
:104F2000040810204A4001114A04012119152A40A1
:104F30003219251B0402F21B7048D13AF0501A3680
:104F40000F1EC030C828E87028080718272423142B
:104F50000B6F2A387E280D203C23020227382008B8
:104F6000F888889F4B203FF01BC0303F1B0838302B
:104F7000191019781B08F80F194039201B100F1051
:104F80003E8888E8081010AC23201810112A035E10
:104F90002940223829402C221E024019A41809F861
:104FA00008203F21010121252A0852298129424157
:104FB00049112EC08080807F0E2FF888C0281808E5
:104FC000501C0126382F2940292F29801B20301002
:104FD00012F81AF81413203F190229204B30C06030
:104FE0001A2074123F4BE010B06B0F10B029D01A8A
:104FF000F0301980220179203F18242438504FC006
:105000004C888870C0140C30204B7088C117382031
:105010002121221C3A189F4A188239A049D0112A0E
:105020001F90121F240878881BC838151C07380EDB
:1050300060191A1AF8201114033C0714073C03489E
:1050400014081868808068180820302C03032C305E
:10505000200838C82F5950298F29102F2038262191
:105060002020681145FE020202257F4040401A0CB4
:10507000E0611C0106380B191D42FE191D527F1AF2
:1050800004120211045A80011930D91D3916211851
:105090000819242222223F20AB390F115F3F112033
:1050A00020110E21311A0E104B2011104B88F810D0
:1050B0002A10B359401A1F3F2B22130F16F088886D
:1050C00088181A20D029D1497A21176B9494949387
:1050D000603960190F4C203F21F354809898793043
:1050E00059121AC02719D1193039311F203F240213
:1050F0002D30212A0812893069D7294B2903190B31
:10510000C96079A019BF2B201FDD390F9C80FFA13A
:10511000E0191229D03BA0FF0C3950194112208A06
:1051200001C01B3324012A190F3AE0413952290FDB
:10513000392349603C103F202C29053F010E3008DF
:10514000060170291038080F300C030C300F2C4961
:10515000A14E312E0E31200C29621D818E70183027
:1051600059D1215721302C22213055807C02024414
:105170003F404072FF39083C02027C8F5440403F60
:105180004E02010202042F39172342CC1E4454540C
:10519000547F042A443F147F20103008FF15151552
:1051A00055957F10101010FF10B02424A424FC2269
:1051B000222322201542827F011809FF4948407F9F
:1051C000404949613A40013BFF4401497F497A35F2
:1051D0000204081017080889EA18881D0404FC0452
:1051E00004297F11280AFF01864020180740809279
:1051F000171010F01F10F0100940E05847405060A1
:10520000C0274022150816211BFE42012AFEDD2C74
:1052100060F807522640201008042A015D1C040291
:1052200001EB190132781BF010012AFF0552F01A28
:105230000F692B04FF052A0F802809042322262A40
:1052400022FA2407130202180C0109090919690935
:105250000949897D0A194E380F1088C433404848DF
:10526000487F48C8484840A0111D020A3202E91A86
:1052700002302B100CD93B45C6E013140C78098082
:1052800040201E2040407FF029A0180910901011E6
:10529000161010D0F129A0280A4040415E4040700D
:1052A0004E4120111BF8880118090808FF08090A57
:1052B000C8082F121F100C10201F8040211618261E
:1052C00041F81D080808F80449C219C1300F103010
:1052D000101F088848300E014080403F6C40301E4F
:1052E000E0195F11201081814121110D0301030D8F
:1052F0001121418181180AFE02FA02FE4020D817CE
:105300003F19222F8047300F10675F160816214083
:105310008035404042CC2A840162FC147F20101B5F
:105320003F40012441407012E0480CFF102004046B
:10533000844424140C04C0211B3846BC1901127883
:10534000180B100C048414640506F4040113140CE7
:105350001E04848444472B1F070C14244484313AD0
:10536000FC59399F19A5211A3F0919B83601064081
:10537000807F1C905234182E345280708FEA1110A6
:1053800008829A566322528E1E8040330C33A02925
:10539000361290100AFE929292F292929E8010081B
:1053A00042827F0180601F1EFC44474444B11010BC
:1053B0002030AC63201880824222121A26428018C4
:1053C0000C226722121212404242427E045A4020AE
:1053D000115809084848FF48484808201130090278
:1053E0000202FF0212221E2809FC242424FC252686
:1053F00024081204180F40308F80844C5525252531
:10540000554C808070100962524AC6425262C23ABC
:10541000F8FA1E40C444447F2A12203A0FC11E806D
:10542000828282FE0449061A80115440300F192DE1
:10543000411FF821C2083202BF2D8A8A02FE1715C9
:1054400004043E011F3C2427243C8023200F2020FD
:1054500020FF202080F88040FF2010F0171030102F
:105460000F080820093F40405F4244437819703DCF
:105470005F4444DF061344C022017A3EBD190D117A
:105480001308301941394614222C201E040402014D
:10549000FF841F0E010618204090200E04848444CF
:1054A00024548F142444848404234139200C3C4028
:1054B00040424C4040700409311C0202C25049C3B2
:1054C0001A02E05C40407F042901113010201808C6
:1054D000EAACA8A8AFA8A8ACEA082818297F1980C8
:1054E000398121180B908887FC84848002F2120194
:1054F00013F2021D8060180793200940455941416D
:10550000514D40158060F807280A042424252624DC
:10551000242404B319F6112BF9490142F9300D186E
:105520001610D0B897909090929410180F20108C6D
:105530008380414628102844438080901342CC1831
:105540000A88898E88F8888C8B88D0180D40201F97
:10555000204050484641424458A0104BC7EBB2E5AA
:10556000BFA8B3F5CABCBBAFD6D0B5C8B4FDB6A80A
:10557000CEBBB3C9B9A6CAA7B0DCBCC7D2E4CAB512
:10558000CAB1CAFDBEDDBEADCEB3B6C8B5BDBFAAF9
:10559000C0ABB5D8B4F8D7B4CCACD5FDB3A3B6CCBA
:1055A000D0C5B7A2CBCD1D20212223A76059272823
:1055B000292A2B2C2D2E2F303132333435363738E3
:1055C000393A3B3C3D3E3F404142434445464748D3
:1055D000494A4B4C4D4E4F505152535455565758C3
:1055E000595A5B5C5D5E5F606162636465666768B3
:1055F000696A6B6C6D6E6F707172737475767778A3
:10560000797A7B7C7D7E13A0C01B08C00401162D17
:105610000102030404980806070809020406261379
:105620004D321408F1314C0809493C132C4D1B082C
:0856300080040120DA01088169
:0400000508000145A9
:00000001FF
